{
    "contractName": "DomainAuction",
    "abi": [
        {
            "constant": true,
            "inputs": [],
            "name": "winningBid",
            "outputs": [
                {
                    "name": "winTimestamp",
                    "type": "uint256"
                },
                {
                    "name": "bidTimestamp",
                    "type": "uint256"
                },
                {
                    "name": "bidder",
                    "type": "address"
                },
                {
                    "name": "bidAmount",
                    "type": "uint256"
                },
                {
                    "name": "url",
                    "type": "string"
                }
            ],
            "payable": false,
            "stateMutability": "view",
            "type": "function"
        },
        {
            "constant": true,
            "inputs": [],
            "name": "owner",
            "outputs": [
                {
                    "name": "",
                    "type": "address"
                }
            ],
            "payable": false,
            "stateMutability": "view",
            "type": "function"
        },
        {
            "constant": true,
            "inputs": [],
            "name": "highestBid",
            "outputs": [
                {
                    "name": "timestamp",
                    "type": "uint256"
                },
                {
                    "name": "bidder",
                    "type": "address"
                },
                {
                    "name": "amount",
                    "type": "uint256"
                },
                {
                    "name": "url",
                    "type": "string"
                }
            ],
            "payable": false,
            "stateMutability": "view",
            "type": "function"
        },
        {
            "inputs": [],
            "payable": true,
            "stateMutability": "payable",
            "type": "constructor"
        },
        {
            "anonymous": false,
            "inputs": [
                {
                    "indexed": false,
                    "name": "timestamp",
                    "type": "uint256"
                },
                {
                    "indexed": false,
                    "name": "bidder",
                    "type": "address"
                },
                {
                    "indexed": false,
                    "name": "amount",
                    "type": "uint256"
                },
                {
                    "indexed": false,
                    "name": "url",
                    "type": "string"
                }
            ],
            "name": "BidLog",
            "type": "event"
        },
        {
            "anonymous": false,
            "inputs": [
                {
                    "indexed": false,
                    "name": "winTimestamp",
                    "type": "uint256"
                },
                {
                    "indexed": false,
                    "name": "bidTimestamp",
                    "type": "uint256"
                },
                {
                    "indexed": false,
                    "name": "bidder",
                    "type": "address"
                },
                {
                    "indexed": false,
                    "name": "amount",
                    "type": "uint256"
                },
                {
                    "indexed": false,
                    "name": "url",
                    "type": "string"
                }
            ],
            "name": "WinningBidLog",
            "type": "event"
        },
        {
            "anonymous": false,
            "inputs": [
                {
                    "indexed": false,
                    "name": "timestamp",
                    "type": "uint256"
                },
                {
                    "indexed": false,
                    "name": "bidder",
                    "type": "address"
                },
                {
                    "indexed": false,
                    "name": "amount",
                    "type": "uint256"
                }
            ],
            "name": "Refund",
            "type": "event"
        },
        {
            "constant": false,
            "inputs": [
                {
                    "name": "url",
                    "type": "string"
                }
            ],
            "name": "placeBid",
            "outputs": [],
            "payable": true,
            "stateMutability": "payable",
            "type": "function"
        },
        {
            "constant": false,
            "inputs": [],
            "name": "pickWinner",
            "outputs": [],
            "payable": true,
            "stateMutability": "payable",
            "type": "function"
        },
        {
            "constant": false,
            "inputs": [],
            "name": "kill",
            "outputs": [],
            "payable": false,
            "stateMutability": "nonpayable",
            "type": "function"
        }
    ],
    "bytecode": "0x6080604052336000806101000a81548173ffffffffffffffffffffffffffffffffffffffff021916908373ffffffffffffffffffffffffffffffffffffffff160217905550610dbb806100536000396000f300608060405260043610610078576000357c0100000000000000000000000000000000000000000000000000000000900463ffffffff16806341c0e1b51461007d5780635d495aea146100945780638cf804381461009e5780638da5cb5b14610176578063d57bde79146101cd578063e967e60c1461029e575b600080fd5b34801561008957600080fd5b506100926102fa565b005b61009c61038b565b005b3480156100aa57600080fd5b506100b3610694565b604051808681526020018581526020018473ffffffffffffffffffffffffffffffffffffffff1673ffffffffffffffffffffffffffffffffffffffff16815260200183815260200180602001828103825283818151815260200191508051906020019080838360005b8381101561013757808201518184015260208101905061011c565b50505050905090810190601f1680156101645780820380516001836020036101000a031916815260200191505b50965050505050505060405180910390f35b34801561018257600080fd5b5061018b610770565b604051808273ffffffffffffffffffffffffffffffffffffffff1673ffffffffffffffffffffffffffffffffffffffff16815260200191505060405180910390f35b3480156101d957600080fd5b506101e2610795565b604051808581526020018473ffffffffffffffffffffffffffffffffffffffff1673ffffffffffffffffffffffffffffffffffffffff16815260200183815260200180602001828103825283818151815260200191508051906020019080838360005b83811015610260578082015181840152602081019050610245565b50505050905090810190601f16801561028d5780820380516001836020036101000a031916815260200191505b509550505050505060405180910390f35b6102f8600480360381019080803590602001908201803590602001908080601f016020809104026020016040519081016040528093929190818152602001838380828437820191505050505050919291929050505061086b565b005b6000809054906101000a900473ffffffffffffffffffffffffffffffffffffffff1673ffffffffffffffffffffffffffffffffffffffff163373ffffffffffffffffffffffffffffffffffffffff161415610389576000809054906101000a900473ffffffffffffffffffffffffffffffffffffffff1673ffffffffffffffffffffffffffffffffffffffff16ff5b565b610393610c65565b6000809054906101000a900473ffffffffffffffffffffffffffffffffffffffff1673ffffffffffffffffffffffffffffffffffffffff163373ffffffffffffffffffffffffffffffffffffffff161415156103ee57600080fd5b6001600001546005600101541415156106915760a06040519081016040528042815260200160016000015481526020016001800160009054906101000a900473ffffffffffffffffffffffffffffffffffffffff1673ffffffffffffffffffffffffffffffffffffffff168152602001600160020154815260200160016003018054600181600116156101000203166002900480601f0160208091040260200160405190810160405280929190818152602001828054600181600116156101000203166002900480156105025780601f106104d757610100808354040283529160200191610502565b820191906000526020600020905b8154815290600101906020018083116104e557829003601f168201915b50505050508152509050806005600082015181600001556020820151816001015560408201518160020160006101000a81548173ffffffffffffffffffffffffffffffffffffffff021916908373ffffffffffffffffffffffffffffffffffffffff160217905550606082015181600301556080820151816004019080519060200190610590929190610cab565b509050507f53dd5876fdd818ff3415e5315b9b904f51b0ffb89d6362435084c52103a36d4e81600001518260200151836040015184606001518560800151604051808681526020018581526020018473ffffffffffffffffffffffffffffffffffffffff1673ffffffffffffffffffffffffffffffffffffffff16815260200183815260200180602001828103825283818151815260200191508051906020019080838360005b83811015610652578082015181840152602081019050610637565b50505050905090810190601f16801561067f5780820380516001836020036101000a031916815260200191505b50965050505050505060405180910390a15b50565b60058060000154908060010154908060020160009054906101000a900473ffffffffffffffffffffffffffffffffffffffff1690806003015490806004018054600181600116156101000203166002900480601f0160208091040260200160405190810160405280929190818152602001828054600181600116156101000203166002900480156107665780601f1061073b57610100808354040283529160200191610766565b820191906000526020600020905b81548152906001019060200180831161074957829003601f168201915b5050505050905085565b6000809054906101000a900473ffffffffffffffffffffffffffffffffffffffff1681565b60018060000154908060010160009054906101000a900473ffffffffffffffffffffffffffffffffffffffff1690806002015490806003018054600181600116156101000203166002900480601f0160208091040260200160405190810160405280929190818152602001828054600181600116156101000203166002900480156108615780601f1061083657610100808354040283529160200191610861565b820191906000526020600020905b81548152906001019060200180831161084457829003601f168201915b5050505050905084565b610873610d2b565b600a600b6001600201540281151561088757fe5b04341015151561089657600080fd5b6080604051908101604052804281526020013373ffffffffffffffffffffffffffffffffffffffff16815260200134815260200183815250905060006001800160009054906101000a900473ffffffffffffffffffffffffffffffffffffffff1673ffffffffffffffffffffffffffffffffffffffff16141515610a3757610a36600160806040519081016040529081600082015481526020016001820160009054906101000a900473ffffffffffffffffffffffffffffffffffffffff1673ffffffffffffffffffffffffffffffffffffffff1673ffffffffffffffffffffffffffffffffffffffff16815260200160028201548152602001600382018054600181600116156101000203166002900480601f016020809104026020016040519081016040528092919081815260200182805460018160011615610100020316600290048015610a285780601f106109fd57610100808354040283529160200191610a28565b820191906000526020600020905b815481529060010190602001808311610a0b57829003601f168201915b505050505081525050610ba9565b5b8060016000820151816000015560208201518160010160006101000a81548173ffffffffffffffffffffffffffffffffffffffff021916908373ffffffffffffffffffffffffffffffffffffffff160217905550604082015181600201556060820151816003019080519060200190610ab1929190610cab565b509050507fef13aa15accd56192d5d25c5fcd41efb9bb182eeedcd6453eebae2d82bb8eedb8160000151826020015183604001518460600151604051808581526020018473ffffffffffffffffffffffffffffffffffffffff1673ffffffffffffffffffffffffffffffffffffffff16815260200183815260200180602001828103825283818151815260200191508051906020019080838360005b83811015610b68578082015181840152602081019050610b4d565b50505050905090810190601f168015610b955780820380516001836020036101000a031916815260200191505b509550505050505060405180910390a15050565b806020015173ffffffffffffffffffffffffffffffffffffffff166108fc82604001519081150290604051600060405180830381858888f19350505050507f21e12a7cad0da5928167e1084ea4d5fdf8d9af66657a2543a9ac76a0ca0814774282602001518360400151604051808481526020018373ffffffffffffffffffffffffffffffffffffffff1673ffffffffffffffffffffffffffffffffffffffff168152602001828152602001935050505060405180910390a150565b60a0604051908101604052806000815260200160008152602001600073ffffffffffffffffffffffffffffffffffffffff16815260200160008152602001606081525090565b828054600181600116156101000203166002900490600052602060002090601f016020900481019282601f10610cec57805160ff1916838001178555610d1a565b82800160010185558215610d1a579182015b82811115610d19578251825591602001919060010190610cfe565b5b509050610d279190610d6a565b5090565b60806040519081016040528060008152602001600073ffffffffffffffffffffffffffffffffffffffff16815260200160008152602001606081525090565b610d8c91905b80821115610d88576000816000905550600101610d70565b5090565b905600a165627a7a723058200aa27eb5eb9988201d511c71a637e8237eeef023fbcad299fa88d771ad11693c0029",
    "source": "pragma solidity ^0.4.18;\n\ncontract DomainAuction {\n    address public owner;\n\n    struct Bid {\n        uint timestamp;\n        address bidder;\n        uint amount;\n        string url;\n    }\n\n    struct WinningBid {\n        uint winTimestamp;\n        uint bidTimestamp;\n        address bidder;\n        uint bidAmount;\n        string url;\n    }\n\n    Bid public highestBid;\n\n    WinningBid public winningBid;\n\n    event BidLog(uint timestamp, address bidder, uint amount, string url);\n    event WinningBidLog(uint winTimestamp, uint bidTimestamp, address bidder, uint amount, string url);\n    event Refund(uint timestamp, address bidder, uint amount);\n\n    ///////////////////////////////////\n\n    function placeBid(string url) public payable {\n        require(msg.value >= ((highestBid.amount * 11) / 10));\n        Bid memory newBid = Bid(now, msg.sender, msg.value, url);\n\n        // Refund the current highest bid.\n        // Do not refund anything on the first `placeBid` call.\n        if (highestBid.bidder != 0) {\n            refundBid(highestBid);\n        }\n\n        // Update the highest bid and log the event\n        highestBid = newBid;\n        emit BidLog(newBid.timestamp, newBid.bidder, newBid.amount, newBid.url);\n    }\n\n    // This might fail if the bidder is trying some contract bullshit, but they do this\n    // at their own risk. It won't fail if the bidder is a non-contract address.\n    // It is very important to use `send` instead of `transfer`. Otherwise this could fail\n    // and this contract could get hijacked.\n    // See https://ethereum.stackexchange.com/questions/19341/address-send-vs-address-transfer-best-practice-usage\n    function refundBid(Bid bid) private {\n        bid.bidder.send(bid.amount);\n        emit Refund(now, bid.bidder, bid.amount);\n    }\n\n    // This will need to be triggered externally every x days\n    function pickWinner() public payable {\n        require(msg.sender == owner);\n\n        if (winningBid.bidTimestamp != highestBid.timestamp) {\n          // Have to store the new winning bid in memory in order to emit it as part\n          // of an event. Can't emit an event straight from a stored variable.\n          WinningBid memory newWinningBid = WinningBid(now, highestBid.timestamp, highestBid.bidder, highestBid.amount, highestBid.url);\n          winningBid = newWinningBid;\n          emit WinningBidLog(\n              newWinningBid.winTimestamp,\n              newWinningBid.bidTimestamp,\n              newWinningBid.bidder,\n              newWinningBid.bidAmount,\n              newWinningBid.url\n          );\n        }\n    }\n\n    ///////////////////////////////////\n\n    constructor() public payable {\n        owner = msg.sender;\n    }\n\n    function kill() public {\n        if (msg.sender == owner) selfdestruct(owner);\n    }\n}\n",
    "sourcePath": "/Users/taimur/workspace/domain-eth-auction/contracts/DomainAuction.sol",
    "compiler": {
        "name": "solc",
        "version": "0.4.23+commit.124ca40d.Emscripten.clang"
    },
    "schemaVersion": "2.0.0",
    "updatedAt": "2018-05-28T12:59:19.047Z"
}